{
  "_format": "hh-sol-artifact-1",
  "contractName": "Lottery",
  "sourceName": "contracts/Lottery.sol",
  "abi": [
    {
      "anonymous": false,
      "inputs": [
        {
          "indexed": true,
          "internalType": "uint256",
          "name": "lotteryId",
          "type": "uint256"
        },
        {
          "indexed": false,
          "internalType": "address",
          "name": "winner",
          "type": "address"
        },
        {
          "indexed": false,
          "internalType": "uint256",
          "name": "winningTicket",
          "type": "uint256"
        }
      ],
      "name": "WinnerSelected",
      "type": "event"
    },
    {
      "inputs": [
        {
          "internalType": "string",
          "name": "_lottery_name",
          "type": "string"
        },
        {
          "internalType": "uint256",
          "name": "_price",
          "type": "uint256"
        },
        {
          "internalType": "uint256",
          "name": "_createdAt",
          "type": "uint256"
        },
        {
          "internalType": "uint256",
          "name": "_expiresAt",
          "type": "uint256"
        }
      ],
      "name": "createLottery",
      "outputs": [],
      "stateMutability": "nonpayable",
      "type": "function"
    },
    {
      "inputs": [],
      "name": "getAllLoteries",
      "outputs": [
        {
          "components": [
            {
              "internalType": "uint256",
              "name": "id",
              "type": "uint256"
            },
            {
              "internalType": "string",
              "name": "lottery_name",
              "type": "string"
            },
            {
              "internalType": "uint256",
              "name": "current_prizePool",
              "type": "uint256"
            },
            {
              "internalType": "address",
              "name": "manager",
              "type": "address"
            },
            {
              "internalType": "uint256",
              "name": "price",
              "type": "uint256"
            },
            {
              "internalType": "uint256",
              "name": "createdAt",
              "type": "uint256"
            },
            {
              "internalType": "uint256",
              "name": "expiresAt",
              "type": "uint256"
            },
            {
              "internalType": "bool",
              "name": "drawn",
              "type": "bool"
            }
          ],
          "internalType": "struct Lottery.LotteryStruct[]",
          "name": "",
          "type": "tuple[]"
        }
      ],
      "stateMutability": "view",
      "type": "function"
    },
    {
      "inputs": [],
      "name": "getLotteryCounter",
      "outputs": [
        {
          "internalType": "uint256",
          "name": "",
          "type": "uint256"
        }
      ],
      "stateMutability": "view",
      "type": "function"
    },
    {
      "inputs": [
        {
          "internalType": "uint256",
          "name": "lott_id",
          "type": "uint256"
        }
      ],
      "name": "getLotteryWinner",
      "outputs": [
        {
          "components": [
            {
              "internalType": "uint256",
              "name": "winning_ticket_number",
              "type": "uint256"
            },
            {
              "internalType": "address",
              "name": "winner_address",
              "type": "address"
            }
          ],
          "internalType": "struct Lottery.LotteryWinner",
          "name": "",
          "type": "tuple"
        }
      ],
      "stateMutability": "view",
      "type": "function"
    },
    {
      "inputs": [
        {
          "internalType": "uint256",
          "name": "lott_id",
          "type": "uint256"
        },
        {
          "internalType": "uint256",
          "name": "ticketNumber",
          "type": "uint256"
        }
      ],
      "name": "getPlayerAddressByTicket",
      "outputs": [
        {
          "internalType": "address",
          "name": "",
          "type": "address"
        }
      ],
      "stateMutability": "view",
      "type": "function"
    },
    {
      "inputs": [],
      "name": "getPlayerLotteries",
      "outputs": [
        {
          "components": [
            {
              "internalType": "uint256",
              "name": "lottery_id",
              "type": "uint256"
            },
            {
              "internalType": "bool",
              "name": "paid",
              "type": "bool"
            }
          ],
          "internalType": "struct Lottery.LotteriesPurchased[]",
          "name": "",
          "type": "tuple[]"
        }
      ],
      "stateMutability": "view",
      "type": "function"
    },
    {
      "inputs": [
        {
          "internalType": "uint256",
          "name": "lott_id",
          "type": "uint256"
        }
      ],
      "name": "purchaseLottery",
      "outputs": [
        {
          "internalType": "uint256",
          "name": "",
          "type": "uint256"
        }
      ],
      "stateMutability": "payable",
      "type": "function"
    },
    {
      "inputs": [
        {
          "internalType": "uint256",
          "name": "lott_id",
          "type": "uint256"
        }
      ],
      "name": "selectWinner",
      "outputs": [],
      "stateMutability": "nonpayable",
      "type": "function"
    }
  ],
  "bytecode": "0x608060405234801561001057600080fd5b50612064806100206000396000f3fe60806040526004361061007b5760003560e01c806390722d9b1161004e57806390722d9b1461013a578063b07731cb1461016a578063e9e170e3146101a7578063ebeeb634146101d25761007b565b806305f12b16146100805780632425d494146100a95780634c524be4146100d45780638f8ca3bc146100fd575b600080fd5b34801561008c57600080fd5b506100a760048036038101906100a29190611100565b6101fd565b005b3480156100b557600080fd5b506100be61041a565b6040516100cb9190611192565b60405180910390f35b3480156100e057600080fd5b506100fb60048036038101906100f691906111ad565b610424565b005b34801561010957600080fd5b50610124600480360381019061011f91906111ad565b610794565b6040516101319190611259565b60405180910390f35b610154600480360381019061014f91906111ad565b6108d6565b6040516101619190611192565b60405180910390f35b34801561017657600080fd5b50610191600480360381019061018c9190611274565b610b1a565b60405161019e91906112c3565b60405180910390f35b3480156101b357600080fd5b506101bc610c1d565b6040516101c991906114ea565b60405180910390f35b3480156101de57600080fd5b506101e7610e22565b6040516101f491906115ea565b60405180910390f35b60008311610240576040517f08c379a00000000000000000000000000000000000000000000000000000000081526004016102379061168f565b60405180910390fd5b42821115610283576040517f08c379a000000000000000000000000000000000000000000000000000000000815260040161027a90611721565b60405180910390fd5b4281116102c5576040517f08c379a00000000000000000000000000000000000000000000000000000000081526004016102bc906117b3565b60405180910390fd5b600560008154809291906102d890611802565b91905055506040518061010001604052806005548152602001858152602001600081526020013373ffffffffffffffffffffffffffffffffffffffff168152602001848152602001838152602001828152602001600015158152506002600060055481526020019081526020016000206000820151816000015560208201518160010190816103679190611a56565b506040820151816002015560608201518160030160006101000a81548173ffffffffffffffffffffffffffffffffffffffff021916908373ffffffffffffffffffffffffffffffffffffffff1602179055506080820151816004015560a0820151816005015560c0820151816006015560e08201518160070160006101000a81548160ff021916908315150217905550905050600080600060055481526020019081526020016000208190555050505050565b6000600554905090565b6002600082815260200190815260200160002060030160009054906101000a900473ffffffffffffffffffffffffffffffffffffffff1673ffffffffffffffffffffffffffffffffffffffff163373ffffffffffffffffffffffffffffffffffffffff16146104c8576040517f08c379a00000000000000000000000000000000000000000000000000000000081526004016104bf90611b9a565b60405180910390fd5b600181101580156104db57506005548111155b61051a576040517f08c379a000000000000000000000000000000000000000000000000000000000815260040161051190611c06565b60405180910390fd5b6002600082815260200190815260200160002060060154421015610573576040517f08c379a000000000000000000000000000000000000000000000000000000000815260040161056a90611c72565b60405180910390fd5b600080600083815260200190815260200160002054116105c8576040517f08c379a00000000000000000000000000000000000000000000000000000000081526004016105bf90611d04565b60405180910390fd5b60004442336040516020016105df93929190611d8d565b6040516020818303038152906040528051906020012060001c905060006001600080858152602001908152602001600020548361061c9190611df9565b6106269190611e2a565b905060006106348483610b1a565b905060405180604001604052808381526020018273ffffffffffffffffffffffffffffffffffffffff16815250600460008681526020019081526020016000206000820151816000015560208201518160010160006101000a81548173ffffffffffffffffffffffffffffffffffffffff021916908373ffffffffffffffffffffffffffffffffffffffff16021790555090505060016002600086815260200190815260200160002060070160006101000a81548160ff021916908315150217905550837ffee5b04775e1cd2311ed22cd00f5d2403aff38ff6f71d6d393f51854ed6bc9868284604051610729929190611e5e565b60405180910390a28073ffffffffffffffffffffffffffffffffffffffff166108fc60026000878152602001908152602001600020600201549081150290604051600060405180830381858888f1935050505015801561078d573d6000803e3d6000fd5b5050505050565b61079c610ee3565b600182101580156107af57506005548211155b6107ee576040517f08c379a00000000000000000000000000000000000000000000000000000000081526004016107e590611c06565b60405180910390fd5b6002600083815260200190815260200160002060070160009054906101000a900460ff16610851576040517f08c379a000000000000000000000000000000000000000000000000000000000815260040161084890611ed3565b60405180910390fd5b60046000838152602001908152602001600020604051806040016040529081600082015481526020016001820160009054906101000a900473ffffffffffffffffffffffffffffffffffffffff1673ffffffffffffffffffffffffffffffffffffffff1673ffffffffffffffffffffffffffffffffffffffff16815250509050919050565b600080821180156108e957506005548211155b610928576040517f08c379a000000000000000000000000000000000000000000000000000000000815260040161091f90611c06565b60405180910390fd5b60026000838152602001908152602001600020600401543414610980576040517f08c379a000000000000000000000000000000000000000000000000000000000815260040161097790611f3f565b60405180910390fd5b600360003373ffffffffffffffffffffffffffffffffffffffff1673ffffffffffffffffffffffffffffffffffffffff16815260200190815260200160002060405180604001604052808481526020016001151581525090806001815401808255809150506001900390600052602060002090600202016000909190919091506000820151816000015560208201518160010160006101000a81548160ff02191690831515021790555050506002600083815260200190815260200160002060040154600260008481526020019081526020016000206002016000828254610a689190611e2a565b925050819055506000808381526020019081526020016000206000815480929190610a9290611802565b919050555060008060008481526020019081526020016000205490503360016000858152602001908152602001600020600083815260200190815260200160002060006101000a81548173ffffffffffffffffffffffffffffffffffffffff021916908373ffffffffffffffffffffffffffffffffffffffff16021790555080915050919050565b600060018310158015610b2f57506005548311155b610b6e576040517f08c379a0000000000000000000000000000000000000000000000000000000008152600401610b6590611c06565b60405180910390fd5b60018210158015610b915750600080848152602001908152602001600020548211155b610bd0576040517f08c379a0000000000000000000000000000000000000000000000000000000008152600401610bc790611fab565b60405180910390fd5b60016000848152602001908152602001600020600083815260200190815260200160002060009054906101000a900473ffffffffffffffffffffffffffffffffffffffff16905092915050565b6060600060055467ffffffffffffffff811115610c3d57610c3c610f9f565b5b604051908082528060200260200182016040528015610c7657816020015b610c63610f13565b815260200190600190039081610c5b5790505b5090506000600190505b6005548111610e1a57600260008281526020019081526020016000206040518061010001604052908160008201548152602001600182018054610cc290611879565b80601f0160208091040260200160405190810160405280929190818152602001828054610cee90611879565b8015610d3b5780601f10610d1057610100808354040283529160200191610d3b565b820191906000526020600020905b815481529060010190602001808311610d1e57829003601f168201915b50505050508152602001600282015481526020016003820160009054906101000a900473ffffffffffffffffffffffffffffffffffffffff1673ffffffffffffffffffffffffffffffffffffffff1673ffffffffffffffffffffffffffffffffffffffff1681526020016004820154815260200160058201548152602001600682015481526020016007820160009054906101000a900460ff16151515158152505082600183610deb9190611fcb565b81518110610dfc57610dfb611fff565b5b60200260200101819052508080610e1290611802565b915050610c80565b508091505090565b6060600360003373ffffffffffffffffffffffffffffffffffffffff1673ffffffffffffffffffffffffffffffffffffffff168152602001908152602001600020805480602002602001604051908101604052809291908181526020016000905b82821015610eda5783829060005260206000209060020201604051806040016040529081600082015481526020016001820160009054906101000a900460ff16151515158152505081526020019060010190610e83565b50505050905090565b604051806040016040528060008152602001600073ffffffffffffffffffffffffffffffffffffffff1681525090565b604051806101000160405280600081526020016060815260200160008152602001600073ffffffffffffffffffffffffffffffffffffffff1681526020016000815260200160008152602001600081526020016000151581525090565b6000604051905090565b600080fd5b600080fd5b600080fd5b600080fd5b6000601f19601f8301169050919050565b7f4e487b7100000000000000000000000000000000000000000000000000000000600052604160045260246000fd5b610fd782610f8e565b810181811067ffffffffffffffff82111715610ff657610ff5610f9f565b5b80604052505050565b6000611009610f70565b90506110158282610fce565b919050565b600067ffffffffffffffff82111561103557611034610f9f565b5b61103e82610f8e565b9050602081019050919050565b82818337600083830152505050565b600061106d6110688461101a565b610fff565b90508281526020810184848401111561108957611088610f89565b5b61109484828561104b565b509392505050565b600082601f8301126110b1576110b0610f84565b5b81356110c184826020860161105a565b91505092915050565b6000819050919050565b6110dd816110ca565b81146110e857600080fd5b50565b6000813590506110fa816110d4565b92915050565b6000806000806080858703121561111a57611119610f7a565b5b600085013567ffffffffffffffff81111561113857611137610f7f565b5b6111448782880161109c565b9450506020611155878288016110eb565b9350506040611166878288016110eb565b9250506060611177878288016110eb565b91505092959194509250565b61118c816110ca565b82525050565b60006020820190506111a76000830184611183565b92915050565b6000602082840312156111c3576111c2610f7a565b5b60006111d1848285016110eb565b91505092915050565b6111e3816110ca565b82525050565b600073ffffffffffffffffffffffffffffffffffffffff82169050919050565b6000611214826111e9565b9050919050565b61122481611209565b82525050565b60408201600082015161124060008501826111da565b506020820151611253602085018261121b565b50505050565b600060408201905061126e600083018461122a565b92915050565b6000806040838503121561128b5761128a610f7a565b5b6000611299858286016110eb565b92505060206112aa858286016110eb565b9150509250929050565b6112bd81611209565b82525050565b60006020820190506112d860008301846112b4565b92915050565b600081519050919050565b600082825260208201905092915050565b6000819050602082019050919050565b600081519050919050565b600082825260208201905092915050565b60005b83811015611344578082015181840152602081019050611329565b60008484015250505050565b600061135b8261130a565b6113658185611315565b9350611375818560208601611326565b61137e81610f8e565b840191505092915050565b60008115159050919050565b61139e81611389565b82525050565b6000610100830160008301516113bd60008601826111da565b50602083015184820360208601526113d58282611350565b91505060408301516113ea60408601826111da565b5060608301516113fd606086018261121b565b50608083015161141060808601826111da565b5060a083015161142360a08601826111da565b5060c083015161143660c08601826111da565b5060e083015161144960e0860182611395565b508091505092915050565b600061146083836113a4565b905092915050565b6000602082019050919050565b6000611480826112de565b61148a81856112e9565b93508360208202850161149c856112fa565b8060005b858110156114d857848403895281516114b98582611454565b94506114c483611468565b925060208a019950506001810190506114a0565b50829750879550505050505092915050565b600060208201905081810360008301526115048184611475565b905092915050565b600081519050919050565b600082825260208201905092915050565b6000819050602082019050919050565b60408201600082015161154e60008501826111da565b5060208201516115616020850182611395565b50505050565b60006115738383611538565b60408301905092915050565b6000602082019050919050565b60006115978261150c565b6115a18185611517565b93506115ac83611528565b8060005b838110156115dd5781516115c48882611567565b97506115cf8361157f565b9250506001810190506115b0565b5085935050505092915050565b60006020820190508181036000830152611604818461158c565b905092915050565b600082825260208201905092915050565b7f5469636b6574207072696365206d75737420626520677265617465722074686160008201527f6e207a65726f0000000000000000000000000000000000000000000000000000602082015250565b600061167960268361160c565b91506116848261161d565b604082019050919050565b600060208201905081810360008301526116a88161166c565b9050919050565b7f4372656174696f6e2074696d65206d75737420626520696e207468652070617360008201527f74206f722070726573656e740000000000000000000000000000000000000000602082015250565b600061170b602c8361160c565b9150611716826116af565b604082019050919050565b6000602082019050818103600083015261173a816116fe565b9050919050565b7f45787069726174696f6e2074696d65206d75737420626520696e20746865206660008201527f7574757265000000000000000000000000000000000000000000000000000000602082015250565b600061179d60258361160c565b91506117a882611741565b604082019050919050565b600060208201905081810360008301526117cc81611790565b9050919050565b7f4e487b7100000000000000000000000000000000000000000000000000000000600052601160045260246000fd5b600061180d826110ca565b91507fffffffffffffffffffffffffffffffffffffffffffffffffffffffffffffffff820361183f5761183e6117d3565b5b600182019050919050565b7f4e487b7100000000000000000000000000000000000000000000000000000000600052602260045260246000fd5b6000600282049050600182168061189157607f821691505b6020821081036118a4576118a361184a565b5b50919050565b60008190508160005260206000209050919050565b60006020601f8301049050919050565b600082821b905092915050565b60006008830261190c7fffffffffffffffffffffffffffffffffffffffffffffffffffffffffffffffff826118cf565b61191686836118cf565b95508019841693508086168417925050509392505050565b6000819050919050565b600061195361194e611949846110ca565b61192e565b6110ca565b9050919050565b6000819050919050565b61196d83611938565b6119816119798261195a565b8484546118dc565b825550505050565b600090565b611996611989565b6119a1818484611964565b505050565b5b818110156119c5576119ba60008261198e565b6001810190506119a7565b5050565b601f821115611a0a576119db816118aa565b6119e4846118bf565b810160208510156119f3578190505b611a076119ff856118bf565b8301826119a6565b50505b505050565b600082821c905092915050565b6000611a2d60001984600802611a0f565b1980831691505092915050565b6000611a468383611a1c565b9150826002028217905092915050565b611a5f8261130a565b67ffffffffffffffff811115611a7857611a77610f9f565b5b611a828254611879565b611a8d8282856119c9565b600060209050601f831160018114611ac05760008415611aae578287015190505b611ab88582611a3a565b865550611b20565b601f198416611ace866118aa565b60005b82811015611af657848901518255600182019150602085019450602081019050611ad1565b86831015611b135784890151611b0f601f891682611a1c565b8355505b6001600288020188555050505b505050505050565b7f4f6e6c7920746865206d616e616765722063616e2063616c6c2074686973206660008201527f756e6374696f6e00000000000000000000000000000000000000000000000000602082015250565b6000611b8460278361160c565b9150611b8f82611b28565b604082019050919050565b60006020820190508181036000830152611bb381611b77565b9050919050565b7f496e76616c6964206c6f74746572792069640000000000000000000000000000600082015250565b6000611bf060128361160c565b9150611bfb82611bba565b602082019050919050565b60006020820190508181036000830152611c1f81611be3565b9050919050565b7f4c6f7474657279206e6f74207965742065787069726564000000000000000000600082015250565b6000611c5c60178361160c565b9150611c6782611c26565b602082019050919050565b60006020820190508181036000830152611c8b81611c4f565b9050919050565b7f4e6f207469636b6574732070757263686173656420666f722074686973206c6f60008201527f7474657279000000000000000000000000000000000000000000000000000000602082015250565b6000611cee60258361160c565b9150611cf982611c92565b604082019050919050565b60006020820190508181036000830152611d1d81611ce1565b9050919050565b6000819050919050565b611d3f611d3a826110ca565b611d24565b82525050565b60008160601b9050919050565b6000611d5d82611d45565b9050919050565b6000611d6f82611d52565b9050919050565b611d87611d8282611209565b611d64565b82525050565b6000611d998286611d2e565b602082019150611da98285611d2e565b602082019150611db98284611d76565b601482019150819050949350505050565b7f4e487b7100000000000000000000000000000000000000000000000000000000600052601260045260246000fd5b6000611e04826110ca565b9150611e0f836110ca565b925082611e1f57611e1e611dca565b5b828206905092915050565b6000611e35826110ca565b9150611e40836110ca565b9250828201905080821115611e5857611e576117d3565b5b92915050565b6000604082019050611e7360008301856112b4565b611e806020830184611183565b9392505050565b7f4c6f7474657279206e6f742079657420647261776e0000000000000000000000600082015250565b6000611ebd60158361160c565b9150611ec882611e87565b602082019050919050565b60006020820190508181036000830152611eec81611eb0565b9050919050565b7f50726963652070616964206e6f742073756666696369656e7400000000000000600082015250565b6000611f2960198361160c565b9150611f3482611ef3565b602082019050919050565b60006020820190508181036000830152611f5881611f1c565b9050919050565b7f496e76616c6964207469636b6574206e756d6265720000000000000000000000600082015250565b6000611f9560158361160c565b9150611fa082611f5f565b602082019050919050565b60006020820190508181036000830152611fc481611f88565b9050919050565b6000611fd6826110ca565b9150611fe1836110ca565b9250828203905081811115611ff957611ff86117d3565b5b92915050565b7f4e487b7100000000000000000000000000000000000000000000000000000000600052603260045260246000fdfea2646970667358221220d3f80bf4c10ed5612722a43e8b9f719f7dcdd9c634a03c74d122210ca0c9eede64736f6c63430008130033",
  "linkReferences": {},
  "deployedLinkReferences": {}
}